{
  "_format": "hh-sol-artifact-1",
  "contractName": "MusicMarketplace",
  "sourceName": "contracts/MusicMarketplace.sol",
  "abi": [
    {
      "inputs": [
        {
          "internalType": "address",
          "name": "_yoda",
          "type": "address"
        },
        {
          "internalType": "address",
          "name": "_nft",
          "type": "address"
        }
      ],
      "stateMutability": "nonpayable",
      "type": "constructor"
    },
    {
      "inputs": [
        {
          "internalType": "address",
          "name": "owner",
          "type": "address"
        }
      ],
      "name": "OwnableInvalidOwner",
      "type": "error"
    },
    {
      "inputs": [
        {
          "internalType": "address",
          "name": "account",
          "type": "address"
        }
      ],
      "name": "OwnableUnauthorizedAccount",
      "type": "error"
    },
    {
      "anonymous": false,
      "inputs": [
        {
          "indexed": true,
          "internalType": "address",
          "name": "previousOwner",
          "type": "address"
        },
        {
          "indexed": true,
          "internalType": "address",
          "name": "newOwner",
          "type": "address"
        }
      ],
      "name": "OwnershipTransferred",
      "type": "event"
    },
    {
      "inputs": [
        {
          "internalType": "uint256",
          "name": "tokenId",
          "type": "uint256"
        }
      ],
      "name": "buyNFT",
      "outputs": [],
      "stateMutability": "nonpayable",
      "type": "function"
    },
    {
      "inputs": [
        {
          "internalType": "uint256",
          "name": "tokenId",
          "type": "uint256"
        },
        {
          "internalType": "uint256",
          "name": "price",
          "type": "uint256"
        }
      ],
      "name": "listNFT",
      "outputs": [],
      "stateMutability": "nonpayable",
      "type": "function"
    },
    {
      "inputs": [
        {
          "internalType": "uint256",
          "name": "",
          "type": "uint256"
        }
      ],
      "name": "listings",
      "outputs": [
        {
          "internalType": "address",
          "name": "seller",
          "type": "address"
        },
        {
          "internalType": "uint256",
          "name": "price",
          "type": "uint256"
        }
      ],
      "stateMutability": "view",
      "type": "function"
    },
    {
      "inputs": [],
      "name": "musicNFT",
      "outputs": [
        {
          "internalType": "contract IERC721",
          "name": "",
          "type": "address"
        }
      ],
      "stateMutability": "view",
      "type": "function"
    },
    {
      "inputs": [],
      "name": "owner",
      "outputs": [
        {
          "internalType": "address",
          "name": "",
          "type": "address"
        }
      ],
      "stateMutability": "view",
      "type": "function"
    },
    {
      "inputs": [],
      "name": "renounceOwnership",
      "outputs": [],
      "stateMutability": "nonpayable",
      "type": "function"
    },
    {
      "inputs": [
        {
          "internalType": "address",
          "name": "newOwner",
          "type": "address"
        }
      ],
      "name": "transferOwnership",
      "outputs": [],
      "stateMutability": "nonpayable",
      "type": "function"
    },
    {
      "inputs": [],
      "name": "yoda",
      "outputs": [
        {
          "internalType": "contract IYodaCoin",
          "name": "",
          "type": "address"
        }
      ],
      "stateMutability": "view",
      "type": "function"
    }
  ],
  "bytecode": "0x608060405234801561001057600080fd5b5060405161108a38038061108a83398181016040528101906100329190610265565b33600073ffffffffffffffffffffffffffffffffffffffff168173ffffffffffffffffffffffffffffffffffffffff16036100a55760006040517f1e4fbdf700000000000000000000000000000000000000000000000000000000815260040161009c91906102b4565b60405180910390fd5b6100b48161013e60201b60201c565b5081600160006101000a81548173ffffffffffffffffffffffffffffffffffffffff021916908373ffffffffffffffffffffffffffffffffffffffff16021790555080600260006101000a81548173ffffffffffffffffffffffffffffffffffffffff021916908373ffffffffffffffffffffffffffffffffffffffff16021790555050506102cf565b60008060009054906101000a900473ffffffffffffffffffffffffffffffffffffffff169050816000806101000a81548173ffffffffffffffffffffffffffffffffffffffff021916908373ffffffffffffffffffffffffffffffffffffffff1602179055508173ffffffffffffffffffffffffffffffffffffffff168173ffffffffffffffffffffffffffffffffffffffff167f8be0079c531659141344cd1fd0a4f28419497f9722a3daafe3b4186f6b6457e060405160405180910390a35050565b600080fd5b600073ffffffffffffffffffffffffffffffffffffffff82169050919050565b600061023282610207565b9050919050565b61024281610227565b811461024d57600080fd5b50565b60008151905061025f81610239565b92915050565b6000806040838503121561027c5761027b610202565b5b600061028a85828601610250565b925050602061029b85828601610250565b9150509250929050565b6102ae81610227565b82525050565b60006020820190506102c960008301846102a5565b92915050565b610dac806102de6000396000f3fe608060405234801561001057600080fd5b50600436106100885760003560e01c8063a035cc441161005b578063a035cc44146100ed578063de74e57b1461010b578063ee577b151461013c578063f2fde38b1461015a57610088565b806351ed82881461008d578063715018a6146100a95780638da5cb5b146100b357806394383f14146100d1575b600080fd5b6100a760048036038101906100a29190610918565b610176565b005b6100b16103c4565b005b6100bb6103d8565b6040516100c89190610986565b60405180910390f35b6100eb60048036038101906100e691906109a1565b610401565b005b6100f5610674565b6040516101029190610a40565b60405180910390f35b61012560048036038101906101209190610918565b61069a565b604051610133929190610a6a565b60405180910390f35b6101446106de565b6040516101519190610ab4565b60405180910390f35b610174600480360381019061016f9190610afb565b610704565b005b6000600360008381526020019081526020016000206040518060400160405290816000820160009054906101000a900473ffffffffffffffffffffffffffffffffffffffff1673ffffffffffffffffffffffffffffffffffffffff1673ffffffffffffffffffffffffffffffffffffffff1681526020016001820154815250509050600081602001511161023f576040517f08c379a000000000000000000000000000000000000000000000000000000000815260040161023690610b85565b60405180910390fd5b600160009054906101000a900473ffffffffffffffffffffffffffffffffffffffff1673ffffffffffffffffffffffffffffffffffffffff166323b872dd33836000015184602001516040518463ffffffff1660e01b81526004016102a693929190610ba5565b6020604051808303816000875af11580156102c5573d6000803e3d6000fd5b505050506040513d601f19601f820116820180604052508101906102e99190610c14565b50600260009054906101000a900473ffffffffffffffffffffffffffffffffffffffff1673ffffffffffffffffffffffffffffffffffffffff166323b872dd3033856040518463ffffffff1660e01b815260040161034993929190610ba5565b600060405180830381600087803b15801561036357600080fd5b505af1158015610377573d6000803e3d6000fd5b5050505060036000838152602001908152602001600020600080820160006101000a81549073ffffffffffffffffffffffffffffffffffffffff0219169055600182016000905550505050565b6103cc61078a565b6103d66000610811565b565b60008060009054906101000a900473ffffffffffffffffffffffffffffffffffffffff16905090565b3373ffffffffffffffffffffffffffffffffffffffff16600260009054906101000a900473ffffffffffffffffffffffffffffffffffffffff1673ffffffffffffffffffffffffffffffffffffffff16636352211e846040518263ffffffff1660e01b81526004016104739190610c41565b602060405180830381865afa158015610490573d6000803e3d6000fd5b505050506040513d601f19601f820116820180604052508101906104b49190610c71565b73ffffffffffffffffffffffffffffffffffffffff161461050a576040517f08c379a000000000000000000000000000000000000000000000000000000000815260040161050190610cea565b60405180910390fd5b6000811161054d576040517f08c379a000000000000000000000000000000000000000000000000000000000815260040161054490610d56565b60405180910390fd5b600260009054906101000a900473ffffffffffffffffffffffffffffffffffffffff1673ffffffffffffffffffffffffffffffffffffffff166323b872dd3330856040518463ffffffff1660e01b81526004016105ac93929190610ba5565b600060405180830381600087803b1580156105c657600080fd5b505af11580156105da573d6000803e3d6000fd5b5050505060405180604001604052803373ffffffffffffffffffffffffffffffffffffffff168152602001828152506003600084815260200190815260200160002060008201518160000160006101000a81548173ffffffffffffffffffffffffffffffffffffffff021916908373ffffffffffffffffffffffffffffffffffffffff160217905550602082015181600101559050505050565b600160009054906101000a900473ffffffffffffffffffffffffffffffffffffffff1681565b60036020528060005260406000206000915090508060000160009054906101000a900473ffffffffffffffffffffffffffffffffffffffff16908060010154905082565b600260009054906101000a900473ffffffffffffffffffffffffffffffffffffffff1681565b61070c61078a565b600073ffffffffffffffffffffffffffffffffffffffff168173ffffffffffffffffffffffffffffffffffffffff160361077e5760006040517f1e4fbdf70000000000000000000000000000000000000000000000000000000081526004016107759190610986565b60405180910390fd5b61078781610811565b50565b6107926108d5565b73ffffffffffffffffffffffffffffffffffffffff166107b06103d8565b73ffffffffffffffffffffffffffffffffffffffff161461080f576107d36108d5565b6040517f118cdaa70000000000000000000000000000000000000000000000000000000081526004016108069190610986565b60405180910390fd5b565b60008060009054906101000a900473ffffffffffffffffffffffffffffffffffffffff169050816000806101000a81548173ffffffffffffffffffffffffffffffffffffffff021916908373ffffffffffffffffffffffffffffffffffffffff1602179055508173ffffffffffffffffffffffffffffffffffffffff168173ffffffffffffffffffffffffffffffffffffffff167f8be0079c531659141344cd1fd0a4f28419497f9722a3daafe3b4186f6b6457e060405160405180910390a35050565b600033905090565b600080fd5b6000819050919050565b6108f5816108e2565b811461090057600080fd5b50565b600081359050610912816108ec565b92915050565b60006020828403121561092e5761092d6108dd565b5b600061093c84828501610903565b91505092915050565b600073ffffffffffffffffffffffffffffffffffffffff82169050919050565b600061097082610945565b9050919050565b61098081610965565b82525050565b600060208201905061099b6000830184610977565b92915050565b600080604083850312156109b8576109b76108dd565b5b60006109c685828601610903565b92505060206109d785828601610903565b9150509250929050565b6000819050919050565b6000610a06610a016109fc84610945565b6109e1565b610945565b9050919050565b6000610a18826109eb565b9050919050565b6000610a2a82610a0d565b9050919050565b610a3a81610a1f565b82525050565b6000602082019050610a556000830184610a31565b92915050565b610a64816108e2565b82525050565b6000604082019050610a7f6000830185610977565b610a8c6020830184610a5b565b9392505050565b6000610a9e82610a0d565b9050919050565b610aae81610a93565b82525050565b6000602082019050610ac96000830184610aa5565b92915050565b610ad881610965565b8114610ae357600080fd5b50565b600081359050610af581610acf565b92915050565b600060208284031215610b1157610b106108dd565b5b6000610b1f84828501610ae6565b91505092915050565b600082825260208201905092915050565b7f4e6f7420666f722073616c650000000000000000000000000000000000000000600082015250565b6000610b6f600c83610b28565b9150610b7a82610b39565b602082019050919050565b60006020820190508181036000830152610b9e81610b62565b9050919050565b6000606082019050610bba6000830186610977565b610bc76020830185610977565b610bd46040830184610a5b565b949350505050565b60008115159050919050565b610bf181610bdc565b8114610bfc57600080fd5b50565b600081519050610c0e81610be8565b92915050565b600060208284031215610c2a57610c296108dd565b5b6000610c3884828501610bff565b91505092915050565b6000602082019050610c566000830184610a5b565b92915050565b600081519050610c6b81610acf565b92915050565b600060208284031215610c8757610c866108dd565b5b6000610c9584828501610c5c565b91505092915050565b7f4e6f74206f776e65720000000000000000000000000000000000000000000000600082015250565b6000610cd4600983610b28565b9150610cdf82610c9e565b602082019050919050565b60006020820190508181036000830152610d0381610cc7565b9050919050565b7f5072696365206d757374206265203e2030000000000000000000000000000000600082015250565b6000610d40601183610b28565b9150610d4b82610d0a565b602082019050919050565b60006020820190508181036000830152610d6f81610d33565b905091905056fea2646970667358221220ae92cf593defd5d53f2a6254b2c0188335974a5b3a01651c5a168478adb496cc64736f6c634300081c0033",
  "linkReferences": {},
  "deployedLinkReferences": {}
}