{
  "_format": "hh-sol-artifact-1",
  "contractName": "MusicMarketplace",
  "sourceName": "contracts/MusicMarketplace.sol",
  "abi": [
    {
      "inputs": [
        {
          "internalType": "address",
          "name": "_yoda",
          "type": "address"
        },
        {
          "internalType": "address",
          "name": "_nft",
          "type": "address"
        }
      ],
      "stateMutability": "nonpayable",
      "type": "constructor"
    },
    {
      "inputs": [
        {
          "internalType": "address",
          "name": "owner",
          "type": "address"
        }
      ],
      "name": "OwnableInvalidOwner",
      "type": "error"
    },
    {
      "inputs": [
        {
          "internalType": "address",
          "name": "account",
          "type": "address"
        }
      ],
      "name": "OwnableUnauthorizedAccount",
      "type": "error"
    },
    {
      "anonymous": false,
      "inputs": [
        {
          "indexed": true,
          "internalType": "address",
          "name": "previousOwner",
          "type": "address"
        },
        {
          "indexed": true,
          "internalType": "address",
          "name": "newOwner",
          "type": "address"
        }
      ],
      "name": "OwnershipTransferred",
      "type": "event"
    },
    {
      "inputs": [
        {
          "internalType": "uint256",
          "name": "tokenId",
          "type": "uint256"
        }
      ],
      "name": "buyNFT",
      "outputs": [],
      "stateMutability": "nonpayable",
      "type": "function"
    },
    {
      "inputs": [
        {
          "internalType": "uint256",
          "name": "tokenId",
          "type": "uint256"
        },
        {
          "internalType": "uint256",
          "name": "price",
          "type": "uint256"
        }
      ],
      "name": "listNFT",
      "outputs": [],
      "stateMutability": "nonpayable",
      "type": "function"
    },
    {
      "inputs": [
        {
          "internalType": "uint256",
          "name": "",
          "type": "uint256"
        }
      ],
      "name": "listings",
      "outputs": [
        {
          "internalType": "address",
          "name": "seller",
          "type": "address"
        },
        {
          "internalType": "uint256",
          "name": "price",
          "type": "uint256"
        }
      ],
      "stateMutability": "view",
      "type": "function"
    },
    {
      "inputs": [],
      "name": "musicNFT",
      "outputs": [
        {
          "internalType": "contract IERC721",
          "name": "",
          "type": "address"
        }
      ],
      "stateMutability": "view",
      "type": "function"
    },
    {
      "inputs": [],
      "name": "owner",
      "outputs": [
        {
          "internalType": "address",
          "name": "",
          "type": "address"
        }
      ],
      "stateMutability": "view",
      "type": "function"
    },
    {
      "inputs": [],
      "name": "renounceOwnership",
      "outputs": [],
      "stateMutability": "nonpayable",
      "type": "function"
    },
    {
      "inputs": [
        {
          "internalType": "address",
          "name": "newOwner",
          "type": "address"
        }
      ],
      "name": "transferOwnership",
      "outputs": [],
      "stateMutability": "nonpayable",
      "type": "function"
    },
    {
      "inputs": [],
      "name": "yoda",
      "outputs": [
        {
          "internalType": "contract IYodaCoin",
          "name": "",
          "type": "address"
        }
      ],
      "stateMutability": "view",
      "type": "function"
    }
  ],
  "bytecode": "0x608060405234801561001057600080fd5b50604051610fdb380380610fdb83398181016040528101906100329190610265565b33600073ffffffffffffffffffffffffffffffffffffffff168173ffffffffffffffffffffffffffffffffffffffff16036100a55760006040517f1e4fbdf700000000000000000000000000000000000000000000000000000000815260040161009c91906102b4565b60405180910390fd5b6100b48161013e60201b60201c565b5081600160006101000a81548173ffffffffffffffffffffffffffffffffffffffff021916908373ffffffffffffffffffffffffffffffffffffffff16021790555080600260006101000a81548173ffffffffffffffffffffffffffffffffffffffff021916908373ffffffffffffffffffffffffffffffffffffffff16021790555050506102cf565b60008060009054906101000a900473ffffffffffffffffffffffffffffffffffffffff169050816000806101000a81548173ffffffffffffffffffffffffffffffffffffffff021916908373ffffffffffffffffffffffffffffffffffffffff1602179055508173ffffffffffffffffffffffffffffffffffffffff168173ffffffffffffffffffffffffffffffffffffffff167f8be0079c531659141344cd1fd0a4f28419497f9722a3daafe3b4186f6b6457e060405160405180910390a35050565b600080fd5b600073ffffffffffffffffffffffffffffffffffffffff82169050919050565b600061023282610207565b9050919050565b61024281610227565b811461024d57600080fd5b50565b60008151905061025f81610239565b92915050565b6000806040838503121561027c5761027b610202565b5b600061028a85828601610250565b925050602061029b85828601610250565b9150509250929050565b6102ae81610227565b82525050565b60006020820190506102c960008301846102a5565b92915050565b610cfd806102de6000396000f3fe608060405234801561001057600080fd5b50600436106100885760003560e01c8063a035cc441161005b578063a035cc44146100ed578063de74e57b1461010b578063ee577b151461013c578063f2fde38b1461015a57610088565b806351ed82881461008d578063715018a6146100a95780638da5cb5b146100b357806394383f14146100d1575b600080fd5b6100a760048036038101906100a291906108d5565b610176565b005b6100b16103c4565b005b6100bb6103d8565b6040516100c89190610943565b60405180910390f35b6100eb60048036038101906100e6919061095e565b610401565b005b6100f5610631565b60405161010291906109fd565b60405180910390f35b610125600480360381019061012091906108d5565b610657565b604051610133929190610a27565b60405180910390f35b61014461069b565b6040516101519190610a71565b60405180910390f35b610174600480360381019061016f9190610ab8565b6106c1565b005b6000600360008381526020019081526020016000206040518060400160405290816000820160009054906101000a900473ffffffffffffffffffffffffffffffffffffffff1673ffffffffffffffffffffffffffffffffffffffff1673ffffffffffffffffffffffffffffffffffffffff1681526020016001820154815250509050600081602001511161023f576040517f08c379a000000000000000000000000000000000000000000000000000000000815260040161023690610b42565b60405180910390fd5b600160009054906101000a900473ffffffffffffffffffffffffffffffffffffffff1673ffffffffffffffffffffffffffffffffffffffff166323b872dd33836000015184602001516040518463ffffffff1660e01b81526004016102a693929190610b62565b6020604051808303816000875af11580156102c5573d6000803e3d6000fd5b505050506040513d601f19601f820116820180604052508101906102e99190610bd1565b50600260009054906101000a900473ffffffffffffffffffffffffffffffffffffffff1673ffffffffffffffffffffffffffffffffffffffff166323b872dd3033856040518463ffffffff1660e01b815260040161034993929190610b62565b600060405180830381600087803b15801561036357600080fd5b505af1158015610377573d6000803e3d6000fd5b5050505060036000838152602001908152602001600020600080820160006101000a81549073ffffffffffffffffffffffffffffffffffffffff0219169055600182016000905550505050565b6103cc610747565b6103d660006107ce565b565b60008060009054906101000a900473ffffffffffffffffffffffffffffffffffffffff16905090565b3373ffffffffffffffffffffffffffffffffffffffff16600260009054906101000a900473ffffffffffffffffffffffffffffffffffffffff1673ffffffffffffffffffffffffffffffffffffffff16636352211e846040518263ffffffff1660e01b81526004016104739190610bfe565b602060405180830381865afa158015610490573d6000803e3d6000fd5b505050506040513d601f19601f820116820180604052508101906104b49190610c2e565b73ffffffffffffffffffffffffffffffffffffffff161461050a576040517f08c379a000000000000000000000000000000000000000000000000000000000815260040161050190610ca7565b60405180910390fd5b600260009054906101000a900473ffffffffffffffffffffffffffffffffffffffff1673ffffffffffffffffffffffffffffffffffffffff166323b872dd3330856040518463ffffffff1660e01b815260040161056993929190610b62565b600060405180830381600087803b15801561058357600080fd5b505af1158015610597573d6000803e3d6000fd5b5050505060405180604001604052803373ffffffffffffffffffffffffffffffffffffffff168152602001828152506003600084815260200190815260200160002060008201518160000160006101000a81548173ffffffffffffffffffffffffffffffffffffffff021916908373ffffffffffffffffffffffffffffffffffffffff160217905550602082015181600101559050505050565b600160009054906101000a900473ffffffffffffffffffffffffffffffffffffffff1681565b60036020528060005260406000206000915090508060000160009054906101000a900473ffffffffffffffffffffffffffffffffffffffff16908060010154905082565b600260009054906101000a900473ffffffffffffffffffffffffffffffffffffffff1681565b6106c9610747565b600073ffffffffffffffffffffffffffffffffffffffff168173ffffffffffffffffffffffffffffffffffffffff160361073b5760006040517f1e4fbdf70000000000000000000000000000000000000000000000000000000081526004016107329190610943565b60405180910390fd5b610744816107ce565b50565b61074f610892565b73ffffffffffffffffffffffffffffffffffffffff1661076d6103d8565b73ffffffffffffffffffffffffffffffffffffffff16146107cc57610790610892565b6040517f118cdaa70000000000000000000000000000000000000000000000000000000081526004016107c39190610943565b60405180910390fd5b565b60008060009054906101000a900473ffffffffffffffffffffffffffffffffffffffff169050816000806101000a81548173ffffffffffffffffffffffffffffffffffffffff021916908373ffffffffffffffffffffffffffffffffffffffff1602179055508173ffffffffffffffffffffffffffffffffffffffff168173ffffffffffffffffffffffffffffffffffffffff167f8be0079c531659141344cd1fd0a4f28419497f9722a3daafe3b4186f6b6457e060405160405180910390a35050565b600033905090565b600080fd5b6000819050919050565b6108b28161089f565b81146108bd57600080fd5b50565b6000813590506108cf816108a9565b92915050565b6000602082840312156108eb576108ea61089a565b5b60006108f9848285016108c0565b91505092915050565b600073ffffffffffffffffffffffffffffffffffffffff82169050919050565b600061092d82610902565b9050919050565b61093d81610922565b82525050565b60006020820190506109586000830184610934565b92915050565b600080604083850312156109755761097461089a565b5b6000610983858286016108c0565b9250506020610994858286016108c0565b9150509250929050565b6000819050919050565b60006109c36109be6109b984610902565b61099e565b610902565b9050919050565b60006109d5826109a8565b9050919050565b60006109e7826109ca565b9050919050565b6109f7816109dc565b82525050565b6000602082019050610a1260008301846109ee565b92915050565b610a218161089f565b82525050565b6000604082019050610a3c6000830185610934565b610a496020830184610a18565b9392505050565b6000610a5b826109ca565b9050919050565b610a6b81610a50565b82525050565b6000602082019050610a866000830184610a62565b92915050565b610a9581610922565b8114610aa057600080fd5b50565b600081359050610ab281610a8c565b92915050565b600060208284031215610ace57610acd61089a565b5b6000610adc84828501610aa3565b91505092915050565b600082825260208201905092915050565b7f4e6f7420666f722073616c650000000000000000000000000000000000000000600082015250565b6000610b2c600c83610ae5565b9150610b3782610af6565b602082019050919050565b60006020820190508181036000830152610b5b81610b1f565b9050919050565b6000606082019050610b776000830186610934565b610b846020830185610934565b610b916040830184610a18565b949350505050565b60008115159050919050565b610bae81610b99565b8114610bb957600080fd5b50565b600081519050610bcb81610ba5565b92915050565b600060208284031215610be757610be661089a565b5b6000610bf584828501610bbc565b91505092915050565b6000602082019050610c136000830184610a18565b92915050565b600081519050610c2881610a8c565b92915050565b600060208284031215610c4457610c4361089a565b5b6000610c5284828501610c19565b91505092915050565b7f4e6f74206f776e65720000000000000000000000000000000000000000000000600082015250565b6000610c91600983610ae5565b9150610c9c82610c5b565b602082019050919050565b60006020820190508181036000830152610cc081610c84565b905091905056fea26469706673582212203dac4c842e898d401e2afd2ccb4d4db4cecdae3d5e6aeaec09690e2ee8f1760664736f6c634300081c0033",
  "linkReferences": {},
  "deployedLinkReferences": {}
}