{
  "_format": "hh-sol-artifact-1",
  "contractName": "MusicNFT",
  "sourceName": "contracts/MusicNFT.sol",
  "abi": [
    {
      "inputs": [],
      "stateMutability": "nonpayable",
      "type": "constructor"
    },
    {
      "inputs": [
        {
          "internalType": "address",
          "name": "sender",
          "type": "address"
        },
        {
          "internalType": "uint256",
          "name": "tokenId",
          "type": "uint256"
        },
        {
          "internalType": "address",
          "name": "owner",
          "type": "address"
        }
      ],
      "name": "ERC721IncorrectOwner",
      "type": "error"
    },
    {
      "inputs": [
        {
          "internalType": "address",
          "name": "operator",
          "type": "address"
        },
        {
          "internalType": "uint256",
          "name": "tokenId",
          "type": "uint256"
        }
      ],
      "name": "ERC721InsufficientApproval",
      "type": "error"
    },
    {
      "inputs": [
        {
          "internalType": "address",
          "name": "approver",
          "type": "address"
        }
      ],
      "name": "ERC721InvalidApprover",
      "type": "error"
    },
    {
      "inputs": [
        {
          "internalType": "address",
          "name": "operator",
          "type": "address"
        }
      ],
      "name": "ERC721InvalidOperator",
      "type": "error"
    },
    {
      "inputs": [
        {
          "internalType": "address",
          "name": "owner",
          "type": "address"
        }
      ],
      "name": "ERC721InvalidOwner",
      "type": "error"
    },
    {
      "inputs": [
        {
          "internalType": "address",
          "name": "receiver",
          "type": "address"
        }
      ],
      "name": "ERC721InvalidReceiver",
      "type": "error"
    },
    {
      "inputs": [
        {
          "internalType": "address",
          "name": "sender",
          "type": "address"
        }
      ],
      "name": "ERC721InvalidSender",
      "type": "error"
    },
    {
      "inputs": [
        {
          "internalType": "uint256",
          "name": "tokenId",
          "type": "uint256"
        }
      ],
      "name": "ERC721NonexistentToken",
      "type": "error"
    },
    {
      "inputs": [
        {
          "internalType": "address",
          "name": "owner",
          "type": "address"
        }
      ],
      "name": "OwnableInvalidOwner",
      "type": "error"
    },
    {
      "inputs": [
        {
          "internalType": "address",
          "name": "account",
          "type": "address"
        }
      ],
      "name": "OwnableUnauthorizedAccount",
      "type": "error"
    },
    {
      "anonymous": false,
      "inputs": [
        {
          "indexed": true,
          "internalType": "address",
          "name": "owner",
          "type": "address"
        },
        {
          "indexed": true,
          "internalType": "address",
          "name": "approved",
          "type": "address"
        },
        {
          "indexed": true,
          "internalType": "uint256",
          "name": "tokenId",
          "type": "uint256"
        }
      ],
      "name": "Approval",
      "type": "event"
    },
    {
      "anonymous": false,
      "inputs": [
        {
          "indexed": true,
          "internalType": "address",
          "name": "owner",
          "type": "address"
        },
        {
          "indexed": true,
          "internalType": "address",
          "name": "operator",
          "type": "address"
        },
        {
          "indexed": false,
          "internalType": "bool",
          "name": "approved",
          "type": "bool"
        }
      ],
      "name": "ApprovalForAll",
      "type": "event"
    },
    {
      "anonymous": false,
      "inputs": [
        {
          "indexed": false,
          "internalType": "uint256",
          "name": "_fromTokenId",
          "type": "uint256"
        },
        {
          "indexed": false,
          "internalType": "uint256",
          "name": "_toTokenId",
          "type": "uint256"
        }
      ],
      "name": "BatchMetadataUpdate",
      "type": "event"
    },
    {
      "anonymous": false,
      "inputs": [
        {
          "indexed": false,
          "internalType": "uint256",
          "name": "_tokenId",
          "type": "uint256"
        }
      ],
      "name": "MetadataUpdate",
      "type": "event"
    },
    {
      "anonymous": false,
      "inputs": [
        {
          "indexed": true,
          "internalType": "address",
          "name": "previousOwner",
          "type": "address"
        },
        {
          "indexed": true,
          "internalType": "address",
          "name": "newOwner",
          "type": "address"
        }
      ],
      "name": "OwnershipTransferred",
      "type": "event"
    },
    {
      "anonymous": false,
      "inputs": [
        {
          "indexed": true,
          "internalType": "address",
          "name": "from",
          "type": "address"
        },
        {
          "indexed": true,
          "internalType": "address",
          "name": "to",
          "type": "address"
        },
        {
          "indexed": true,
          "internalType": "uint256",
          "name": "tokenId",
          "type": "uint256"
        }
      ],
      "name": "Transfer",
      "type": "event"
    },
    {
      "inputs": [
        {
          "internalType": "address",
          "name": "to",
          "type": "address"
        },
        {
          "internalType": "uint256",
          "name": "tokenId",
          "type": "uint256"
        }
      ],
      "name": "approve",
      "outputs": [],
      "stateMutability": "nonpayable",
      "type": "function"
    },
    {
      "inputs": [
        {
          "internalType": "address",
          "name": "owner",
          "type": "address"
        }
      ],
      "name": "balanceOf",
      "outputs": [
        {
          "internalType": "uint256",
          "name": "",
          "type": "uint256"
        }
      ],
      "stateMutability": "view",
      "type": "function"
    },
    {
      "inputs": [
        {
          "internalType": "uint256",
          "name": "tokenId",
          "type": "uint256"
        }
      ],
      "name": "burn",
      "outputs": [],
      "stateMutability": "nonpayable",
      "type": "function"
    },
    {
      "inputs": [
        {
          "internalType": "uint256",
          "name": "tokenId",
          "type": "uint256"
        }
      ],
      "name": "getApproved",
      "outputs": [
        {
          "internalType": "address",
          "name": "",
          "type": "address"
        }
      ],
      "stateMutability": "view",
      "type": "function"
    },
    {
      "inputs": [
        {
          "internalType": "address",
          "name": "owner",
          "type": "address"
        },
        {
          "internalType": "address",
          "name": "operator",
          "type": "address"
        }
      ],
      "name": "isApprovedForAll",
      "outputs": [
        {
          "internalType": "bool",
          "name": "",
          "type": "bool"
        }
      ],
      "stateMutability": "view",
      "type": "function"
    },
    {
      "inputs": [
        {
          "internalType": "string",
          "name": "uri",
          "type": "string"
        }
      ],
      "name": "mintMusicNFT",
      "outputs": [
        {
          "internalType": "uint256",
          "name": "",
          "type": "uint256"
        }
      ],
      "stateMutability": "nonpayable",
      "type": "function"
    },
    {
      "inputs": [],
      "name": "name",
      "outputs": [
        {
          "internalType": "string",
          "name": "",
          "type": "string"
        }
      ],
      "stateMutability": "view",
      "type": "function"
    },
    {
      "inputs": [],
      "name": "owner",
      "outputs": [
        {
          "internalType": "address",
          "name": "",
          "type": "address"
        }
      ],
      "stateMutability": "view",
      "type": "function"
    },
    {
      "inputs": [
        {
          "internalType": "uint256",
          "name": "tokenId",
          "type": "uint256"
        }
      ],
      "name": "ownerOf",
      "outputs": [
        {
          "internalType": "address",
          "name": "",
          "type": "address"
        }
      ],
      "stateMutability": "view",
      "type": "function"
    },
    {
      "inputs": [],
      "name": "renounceOwnership",
      "outputs": [],
      "stateMutability": "nonpayable",
      "type": "function"
    },
    {
      "inputs": [
        {
          "internalType": "address",
          "name": "from",
          "type": "address"
        },
        {
          "internalType": "address",
          "name": "to",
          "type": "address"
        },
        {
          "internalType": "uint256",
          "name": "tokenId",
          "type": "uint256"
        }
      ],
      "name": "safeTransferFrom",
      "outputs": [],
      "stateMutability": "nonpayable",
      "type": "function"
    },
    {
      "inputs": [
        {
          "internalType": "address",
          "name": "from",
          "type": "address"
        },
        {
          "internalType": "address",
          "name": "to",
          "type": "address"
        },
        {
          "internalType": "uint256",
          "name": "tokenId",
          "type": "uint256"
        },
        {
          "internalType": "bytes",
          "name": "data",
          "type": "bytes"
        }
      ],
      "name": "safeTransferFrom",
      "outputs": [],
      "stateMutability": "nonpayable",
      "type": "function"
    },
    {
      "inputs": [
        {
          "internalType": "address",
          "name": "operator",
          "type": "address"
        },
        {
          "internalType": "bool",
          "name": "approved",
          "type": "bool"
        }
      ],
      "name": "setApprovalForAll",
      "outputs": [],
      "stateMutability": "nonpayable",
      "type": "function"
    },
    {
      "inputs": [
        {
          "internalType": "bytes4",
          "name": "interfaceId",
          "type": "bytes4"
        }
      ],
      "name": "supportsInterface",
      "outputs": [
        {
          "internalType": "bool",
          "name": "",
          "type": "bool"
        }
      ],
      "stateMutability": "view",
      "type": "function"
    },
    {
      "inputs": [],
      "name": "symbol",
      "outputs": [
        {
          "internalType": "string",
          "name": "",
          "type": "string"
        }
      ],
      "stateMutability": "view",
      "type": "function"
    },
    {
      "inputs": [],
      "name": "tokenCounter",
      "outputs": [
        {
          "internalType": "uint256",
          "name": "",
          "type": "uint256"
        }
      ],
      "stateMutability": "view",
      "type": "function"
    },
    {
      "inputs": [
        {
          "internalType": "uint256",
          "name": "tokenId",
          "type": "uint256"
        }
      ],
      "name": "tokenURI",
      "outputs": [
        {
          "internalType": "string",
          "name": "",
          "type": "string"
        }
      ],
      "stateMutability": "view",
      "type": "function"
    },
    {
      "inputs": [
        {
          "internalType": "address",
          "name": "from",
          "type": "address"
        },
        {
          "internalType": "address",
          "name": "to",
          "type": "address"
        },
        {
          "internalType": "uint256",
          "name": "tokenId",
          "type": "uint256"
        }
      ],
      "name": "transferFrom",
      "outputs": [],
      "stateMutability": "nonpayable",
      "type": "function"
    },
    {
      "inputs": [
        {
          "internalType": "address",
          "name": "newOwner",
          "type": "address"
        }
      ],
      "name": "transferOwnership",
      "outputs": [],
      "stateMutability": "nonpayable",
      "type": "function"
    }
  ],
  "bytecode": "0x608060405234801561001057600080fd5b50336040518060400160405280600e81526020017f417564696f6d696e744d757369630000000000000000000000000000000000008152506040518060400160405280600581526020017f415544494f000000000000000000000000000000000000000000000000000000815250816000908161008d9190610445565b50806001908161009d9190610445565b505050600073ffffffffffffffffffffffffffffffffffffffff168173ffffffffffffffffffffffffffffffffffffffff16036101125760006040517f1e4fbdf70000000000000000000000000000000000000000000000000000000081526004016101099190610558565b60405180910390fd5b6101218161012f60201b60201c565b506000600881905550610573565b6000600760009054906101000a900473ffffffffffffffffffffffffffffffffffffffff16905081600760006101000a81548173ffffffffffffffffffffffffffffffffffffffff021916908373ffffffffffffffffffffffffffffffffffffffff1602179055508173ffffffffffffffffffffffffffffffffffffffff168173ffffffffffffffffffffffffffffffffffffffff167f8be0079c531659141344cd1fd0a4f28419497f9722a3daafe3b4186f6b6457e060405160405180910390a35050565b600081519050919050565b7f4e487b7100000000000000000000000000000000000000000000000000000000600052604160045260246000fd5b7f4e487b7100000000000000000000000000000000000000000000000000000000600052602260045260246000fd5b6000600282049050600182168061027657607f821691505b6020821081036102895761028861022f565b5b50919050565b60008190508160005260206000209050919050565b60006020601f8301049050919050565b600082821b905092915050565b6000600883026102f17fffffffffffffffffffffffffffffffffffffffffffffffffffffffffffffffff826102b4565b6102fb86836102b4565b95508019841693508086168417925050509392505050565b6000819050919050565b6000819050919050565b600061034261033d61033884610313565b61031d565b610313565b9050919050565b6000819050919050565b61035c83610327565b61037061036882610349565b8484546102c1565b825550505050565b600090565b610385610378565b610390818484610353565b505050565b5b818110156103b4576103a960008261037d565b600181019050610396565b5050565b601f8211156103f9576103ca8161028f565b6103d3846102a4565b810160208510156103e2578190505b6103f66103ee856102a4565b830182610395565b50505b505050565b600082821c905092915050565b600061041c600019846008026103fe565b1980831691505092915050565b6000610435838361040b565b9150826002028217905092915050565b61044e826101f5565b67ffffffffffffffff81111561046757610466610200565b5b610471825461025e565b61047c8282856103b8565b600060209050601f8311600181146104af576000841561049d578287015190505b6104a78582610429565b86555061050f565b601f1984166104bd8661028f565b60005b828110156104e5578489015182556001820191506020850194506020810190506104c0565b8683101561050257848901516104fe601f89168261040b565b8355505b6001600288020188555050505b505050505050565b600073ffffffffffffffffffffffffffffffffffffffff82169050919050565b600061054282610517565b9050919050565b61055281610537565b82525050565b600060208201905061056d6000830184610549565b92915050565b6126f7806105826000396000f3fe608060405234801561001057600080fd5b50600436106101215760003560e01c806370a08231116100ad578063b88d4fde11610071578063b88d4fde14610306578063c87b56dd14610322578063d082e38114610352578063e985e9c514610370578063f2fde38b146103a057610121565b806370a0823114610274578063715018a6146102a45780638da5cb5b146102ae57806395d89b41146102cc578063a22cb465146102ea57610121565b8063221a83d7116100f4578063221a83d7146101c057806323b872dd146101f057806342842e0e1461020c57806342966c68146102285780636352211e1461024457610121565b806301ffc9a71461012657806306fdde0314610156578063081812fc14610174578063095ea7b3146101a4575b600080fd5b610140600480360381019061013b9190611b62565b6103bc565b60405161014d9190611baa565b60405180910390f35b61015e6103ce565b60405161016b9190611c55565b60405180910390f35b61018e60048036038101906101899190611cad565b610460565b60405161019b9190611d1b565b60405180910390f35b6101be60048036038101906101b99190611d62565b61047c565b005b6101da60048036038101906101d59190611ed7565b610492565b6040516101e79190611f2f565b60405180910390f35b61020a60048036038101906102059190611f4a565b6104cf565b005b61022660048036038101906102219190611f4a565b6105d1565b005b610242600480360381019061023d9190611cad565b6105f1565b005b61025e60048036038101906102599190611cad565b610608565b60405161026b9190611d1b565b60405180910390f35b61028e60048036038101906102899190611f9d565b61061a565b60405161029b9190611f2f565b60405180910390f35b6102ac6106d4565b005b6102b66106e8565b6040516102c39190611d1b565b60405180910390f35b6102d4610712565b6040516102e19190611c55565b60405180910390f35b61030460048036038101906102ff9190611ff6565b6107a4565b005b610320600480360381019061031b91906120d7565b6107ba565b005b61033c60048036038101906103379190611cad565b6107df565b6040516103499190611c55565b60405180910390f35b61035a6107f1565b6040516103679190611f2f565b60405180910390f35b61038a6004803603810190610385919061215a565b6107f7565b6040516103979190611baa565b60405180910390f35b6103ba60048036038101906103b59190611f9d565b61088b565b005b60006103c782610911565b9050919050565b6060600080546103dd906121c9565b80601f0160208091040260200160405190810160405280929190818152602001828054610409906121c9565b80156104565780601f1061042b57610100808354040283529160200191610456565b820191906000526020600020905b81548152906001019060200180831161043957829003601f168201915b5050505050905090565b600061046b82610972565b50610475826109fa565b9050919050565b61048e8282610489610a37565b610a3f565b5050565b60008060085490506104a43382610a51565b6104ae8184610a6f565b600860008154809291906104c190612229565b919050555080915050919050565b600073ffffffffffffffffffffffffffffffffffffffff168273ffffffffffffffffffffffffffffffffffffffff16036105415760006040517f64a0ae920000000000000000000000000000000000000000000000000000000081526004016105389190611d1b565b60405180910390fd5b60006105558383610550610a37565b610acb565b90508373ffffffffffffffffffffffffffffffffffffffff168173ffffffffffffffffffffffffffffffffffffffff16146105cb578382826040517f64283d7b0000000000000000000000000000000000000000000000000000000081526004016105c293929190612271565b60405180910390fd5b50505050565b6105ec838383604051806020016040528060008152506107ba565b505050565b6106046000826105ff610a37565b610acb565b5050565b600061061382610972565b9050919050565b60008073ffffffffffffffffffffffffffffffffffffffff168273ffffffffffffffffffffffffffffffffffffffff160361068d5760006040517f89c62b640000000000000000000000000000000000000000000000000000000081526004016106849190611d1b565b60405180910390fd5b600360008373ffffffffffffffffffffffffffffffffffffffff1673ffffffffffffffffffffffffffffffffffffffff168152602001908152602001600020549050919050565b6106dc610ce5565b6106e66000610d6c565b565b6000600760009054906101000a900473ffffffffffffffffffffffffffffffffffffffff16905090565b606060018054610721906121c9565b80601f016020809104026020016040519081016040528092919081815260200182805461074d906121c9565b801561079a5780601f1061076f5761010080835404028352916020019161079a565b820191906000526020600020905b81548152906001019060200180831161077d57829003601f168201915b5050505050905090565b6107b66107af610a37565b8383610e32565b5050565b6107c58484846104cf565b6107d96107d0610a37565b85858585610fa1565b50505050565b60606107ea82611152565b9050919050565b60085481565b6000600560008473ffffffffffffffffffffffffffffffffffffffff1673ffffffffffffffffffffffffffffffffffffffff16815260200190815260200160002060008373ffffffffffffffffffffffffffffffffffffffff1673ffffffffffffffffffffffffffffffffffffffff16815260200190815260200160002060009054906101000a900460ff16905092915050565b610893610ce5565b600073ffffffffffffffffffffffffffffffffffffffff168173ffffffffffffffffffffffffffffffffffffffff16036109055760006040517f1e4fbdf70000000000000000000000000000000000000000000000000000000081526004016108fc9190611d1b565b60405180910390fd5b61090e81610d6c565b50565b6000634906490660e01b7bffffffffffffffffffffffffffffffffffffffffffffffffffffffff1916827bffffffffffffffffffffffffffffffffffffffffffffffffffffffff1916148061096b575061096a82611265565b5b9050919050565b60008061097e83611347565b9050600073ffffffffffffffffffffffffffffffffffffffff168173ffffffffffffffffffffffffffffffffffffffff16036109f157826040517f7e2732890000000000000000000000000000000000000000000000000000000081526004016109e89190611f2f565b60405180910390fd5b80915050919050565b60006004600083815260200190815260200160002060009054906101000a900473ffffffffffffffffffffffffffffffffffffffff169050919050565b600033905090565b610a4c8383836001611384565b505050565b610a6b828260405180602001604052806000815250611549565b5050565b80600660008481526020019081526020016000209081610a8f9190612454565b507ff8e1a15aba9398e019f0b49df1a4fde98ee17ae345cb5f6b5e2c27f5033e8ce782604051610abf9190611f2f565b60405180910390a15050565b600080610ad784611347565b9050600073ffffffffffffffffffffffffffffffffffffffff168373ffffffffffffffffffffffffffffffffffffffff1614610b1957610b1881848661156d565b5b600073ffffffffffffffffffffffffffffffffffffffff168173ffffffffffffffffffffffffffffffffffffffff1614610baa57610b5b600085600080611384565b6001600360008373ffffffffffffffffffffffffffffffffffffffff1673ffffffffffffffffffffffffffffffffffffffff168152602001908152602001600020600082825403925050819055505b600073ffffffffffffffffffffffffffffffffffffffff168573ffffffffffffffffffffffffffffffffffffffff1614610c2d576001600360008773ffffffffffffffffffffffffffffffffffffffff1673ffffffffffffffffffffffffffffffffffffffff168152602001908152602001600020600082825401925050819055505b846002600086815260200190815260200160002060006101000a81548173ffffffffffffffffffffffffffffffffffffffff021916908373ffffffffffffffffffffffffffffffffffffffff160217905550838573ffffffffffffffffffffffffffffffffffffffff168273ffffffffffffffffffffffffffffffffffffffff167fddf252ad1be2c89b69c2b068fc378daa952ba7f163c4a11628f55a4df523b3ef60405160405180910390a4809150509392505050565b610ced610a37565b73ffffffffffffffffffffffffffffffffffffffff16610d0b6106e8565b73ffffffffffffffffffffffffffffffffffffffff1614610d6a57610d2e610a37565b6040517f118cdaa7000000000000000000000000000000000000000000000000000000008152600401610d619190611d1b565b60405180910390fd5b565b6000600760009054906101000a900473ffffffffffffffffffffffffffffffffffffffff16905081600760006101000a81548173ffffffffffffffffffffffffffffffffffffffff021916908373ffffffffffffffffffffffffffffffffffffffff1602179055508173ffffffffffffffffffffffffffffffffffffffff168173ffffffffffffffffffffffffffffffffffffffff167f8be0079c531659141344cd1fd0a4f28419497f9722a3daafe3b4186f6b6457e060405160405180910390a35050565b600073ffffffffffffffffffffffffffffffffffffffff168273ffffffffffffffffffffffffffffffffffffffff1603610ea357816040517f5b08ba18000000000000000000000000000000000000000000000000000000008152600401610e9a9190611d1b565b60405180910390fd5b80600560008573ffffffffffffffffffffffffffffffffffffffff1673ffffffffffffffffffffffffffffffffffffffff16815260200190815260200160002060008473ffffffffffffffffffffffffffffffffffffffff1673ffffffffffffffffffffffffffffffffffffffff16815260200190815260200160002060006101000a81548160ff0219169083151502179055508173ffffffffffffffffffffffffffffffffffffffff168373ffffffffffffffffffffffffffffffffffffffff167f17307eab39ab6107e8899845ad3d59bd9653f200f220920489ca2b5937696c3183604051610f949190611baa565b60405180910390a3505050565b60008373ffffffffffffffffffffffffffffffffffffffff163b111561114b578273ffffffffffffffffffffffffffffffffffffffff1663150b7a02868685856040518563ffffffff1660e01b8152600401611000949392919061257b565b6020604051808303816000875af192505050801561103c57506040513d601f19601f8201168201806040525081019061103991906125dc565b60015b6110c0573d806000811461106c576040519150601f19603f3d011682016040523d82523d6000602084013e611071565b606091505b5060008151036110b857836040517f64a0ae920000000000000000000000000000000000000000000000000000000081526004016110af9190611d1b565b60405180910390fd5b805181602001fd5b63150b7a0260e01b7bffffffffffffffffffffffffffffffffffffffffffffffffffffffff1916817bffffffffffffffffffffffffffffffffffffffffffffffffffffffff19161461114957836040517f64a0ae920000000000000000000000000000000000000000000000000000000081526004016111409190611d1b565b60405180910390fd5b505b5050505050565b606061115d82610972565b50600060066000848152602001908152602001600020805461117e906121c9565b80601f01602080910402602001604051908101604052809291908181526020018280546111aa906121c9565b80156111f75780601f106111cc576101008083540402835291602001916111f7565b820191906000526020600020905b8154815290600101906020018083116111da57829003601f168201915b505050505090506000611208611631565b9050600081510361121d578192505050611260565b60008251111561125257808260405160200161123a929190612645565b60405160208183030381529060405292505050611260565b61125b84611648565b925050505b919050565b60007f80ac58cd000000000000000000000000000000000000000000000000000000007bffffffffffffffffffffffffffffffffffffffffffffffffffffffff1916827bffffffffffffffffffffffffffffffffffffffffffffffffffffffff1916148061133057507f5b5e139f000000000000000000000000000000000000000000000000000000007bffffffffffffffffffffffffffffffffffffffffffffffffffffffff1916827bffffffffffffffffffffffffffffffffffffffffffffffffffffffff1916145b80611340575061133f826116b1565b5b9050919050565b60006002600083815260200190815260200160002060009054906101000a900473ffffffffffffffffffffffffffffffffffffffff169050919050565b80806113bd5750600073ffffffffffffffffffffffffffffffffffffffff168273ffffffffffffffffffffffffffffffffffffffff1614155b156114f15760006113cd84610972565b9050600073ffffffffffffffffffffffffffffffffffffffff168373ffffffffffffffffffffffffffffffffffffffff161415801561143857508273ffffffffffffffffffffffffffffffffffffffff168173ffffffffffffffffffffffffffffffffffffffff1614155b801561144b575061144981846107f7565b155b1561148d57826040517fa9fbf51f0000000000000000000000000000000000000000000000000000000081526004016114849190611d1b565b60405180910390fd5b81156114ef57838573ffffffffffffffffffffffffffffffffffffffff168273ffffffffffffffffffffffffffffffffffffffff167f8c5be1e5ebec7d5bd14f71427d1e84f3dd0314c0f7b2291e5b200ac8c7c3b92560405160405180910390a45b505b836004600085815260200190815260200160002060006101000a81548173ffffffffffffffffffffffffffffffffffffffff021916908373ffffffffffffffffffffffffffffffffffffffff16021790555050505050565b611553838361171b565b61156861155e610a37565b6000858585610fa1565b505050565b611578838383611814565b61162c57600073ffffffffffffffffffffffffffffffffffffffff168373ffffffffffffffffffffffffffffffffffffffff16036115ed57806040517f7e2732890000000000000000000000000000000000000000000000000000000081526004016115e49190611f2f565b60405180910390fd5b81816040517f177e802f000000000000000000000000000000000000000000000000000000008152600401611623929190612669565b60405180910390fd5b505050565b606060405180602001604052806000815250905090565b606061165382610972565b50600061165e611631565b9050600081511161167e57604051806020016040528060008152506116a9565b80611688846118d5565b604051602001611699929190612645565b6040516020818303038152906040525b915050919050565b60007f01ffc9a7000000000000000000000000000000000000000000000000000000007bffffffffffffffffffffffffffffffffffffffffffffffffffffffff1916827bffffffffffffffffffffffffffffffffffffffffffffffffffffffff1916149050919050565b600073ffffffffffffffffffffffffffffffffffffffff168273ffffffffffffffffffffffffffffffffffffffff160361178d5760006040517f64a0ae920000000000000000000000000000000000000000000000000000000081526004016117849190611d1b565b60405180910390fd5b600061179b83836000610acb565b9050600073ffffffffffffffffffffffffffffffffffffffff168173ffffffffffffffffffffffffffffffffffffffff161461180f5760006040517f73c6ac6e0000000000000000000000000000000000000000000000000000000081526004016118069190611d1b565b60405180910390fd5b505050565b60008073ffffffffffffffffffffffffffffffffffffffff168373ffffffffffffffffffffffffffffffffffffffff16141580156118cc57508273ffffffffffffffffffffffffffffffffffffffff168473ffffffffffffffffffffffffffffffffffffffff16148061188d575061188c84846107f7565b5b806118cb57508273ffffffffffffffffffffffffffffffffffffffff166118b3836109fa565b73ffffffffffffffffffffffffffffffffffffffff16145b5b90509392505050565b6060600060016118e4846119a3565b01905060008167ffffffffffffffff81111561190357611902611dac565b5b6040519080825280601f01601f1916602001820160405280156119355781602001600182028036833780820191505090505b509050600082602001820190505b600115611998578080600190039150507f3031323334353637383961626364656600000000000000000000000000000000600a86061a8153600a858161198c5761198b612692565b5b04945060008503611943575b819350505050919050565b600080600090507a184f03e93ff9f4daa797ed6e38ed64bf6a1f0100000000000000008310611a01577a184f03e93ff9f4daa797ed6e38ed64bf6a1f01000000000000000083816119f7576119f6612692565b5b0492506040810190505b6d04ee2d6d415b85acef81000000008310611a3e576d04ee2d6d415b85acef81000000008381611a3457611a33612692565b5b0492506020810190505b662386f26fc100008310611a6d57662386f26fc100008381611a6357611a62612692565b5b0492506010810190505b6305f5e1008310611a96576305f5e1008381611a8c57611a8b612692565b5b0492506008810190505b6127108310611abb576127108381611ab157611ab0612692565b5b0492506004810190505b60648310611ade5760648381611ad457611ad3612692565b5b0492506002810190505b600a8310611aed576001810190505b80915050919050565b6000604051905090565b600080fd5b600080fd5b60007fffffffff0000000000000000000000000000000000000000000000000000000082169050919050565b611b3f81611b0a565b8114611b4a57600080fd5b50565b600081359050611b5c81611b36565b92915050565b600060208284031215611b7857611b77611b00565b5b6000611b8684828501611b4d565b91505092915050565b60008115159050919050565b611ba481611b8f565b82525050565b6000602082019050611bbf6000830184611b9b565b92915050565b600081519050919050565b600082825260208201905092915050565b60005b83811015611bff578082015181840152602081019050611be4565b60008484015250505050565b6000601f19601f8301169050919050565b6000611c2782611bc5565b611c318185611bd0565b9350611c41818560208601611be1565b611c4a81611c0b565b840191505092915050565b60006020820190508181036000830152611c6f8184611c1c565b905092915050565b6000819050919050565b611c8a81611c77565b8114611c9557600080fd5b50565b600081359050611ca781611c81565b92915050565b600060208284031215611cc357611cc2611b00565b5b6000611cd184828501611c98565b91505092915050565b600073ffffffffffffffffffffffffffffffffffffffff82169050919050565b6000611d0582611cda565b9050919050565b611d1581611cfa565b82525050565b6000602082019050611d306000830184611d0c565b92915050565b611d3f81611cfa565b8114611d4a57600080fd5b50565b600081359050611d5c81611d36565b92915050565b60008060408385031215611d7957611d78611b00565b5b6000611d8785828601611d4d565b9250506020611d9885828601611c98565b9150509250929050565b600080fd5b600080fd5b7f4e487b7100000000000000000000000000000000000000000000000000000000600052604160045260246000fd5b611de482611c0b565b810181811067ffffffffffffffff82111715611e0357611e02611dac565b5b80604052505050565b6000611e16611af6565b9050611e228282611ddb565b919050565b600067ffffffffffffffff821115611e4257611e41611dac565b5b611e4b82611c0b565b9050602081019050919050565b82818337600083830152505050565b6000611e7a611e7584611e27565b611e0c565b905082815260208101848484011115611e9657611e95611da7565b5b611ea1848285611e58565b509392505050565b600082601f830112611ebe57611ebd611da2565b5b8135611ece848260208601611e67565b91505092915050565b600060208284031215611eed57611eec611b00565b5b600082013567ffffffffffffffff811115611f0b57611f0a611b05565b5b611f1784828501611ea9565b91505092915050565b611f2981611c77565b82525050565b6000602082019050611f446000830184611f20565b92915050565b600080600060608486031215611f6357611f62611b00565b5b6000611f7186828701611d4d565b9350506020611f8286828701611d4d565b9250506040611f9386828701611c98565b9150509250925092565b600060208284031215611fb357611fb2611b00565b5b6000611fc184828501611d4d565b91505092915050565b611fd381611b8f565b8114611fde57600080fd5b50565b600081359050611ff081611fca565b92915050565b6000806040838503121561200d5761200c611b00565b5b600061201b85828601611d4d565b925050602061202c85828601611fe1565b9150509250929050565b600067ffffffffffffffff82111561205157612050611dac565b5b61205a82611c0b565b9050602081019050919050565b600061207a61207584612036565b611e0c565b90508281526020810184848401111561209657612095611da7565b5b6120a1848285611e58565b509392505050565b600082601f8301126120be576120bd611da2565b5b81356120ce848260208601612067565b91505092915050565b600080600080608085870312156120f1576120f0611b00565b5b60006120ff87828801611d4d565b945050602061211087828801611d4d565b935050604061212187828801611c98565b925050606085013567ffffffffffffffff81111561214257612141611b05565b5b61214e878288016120a9565b91505092959194509250565b6000806040838503121561217157612170611b00565b5b600061217f85828601611d4d565b925050602061219085828601611d4d565b9150509250929050565b7f4e487b7100000000000000000000000000000000000000000000000000000000600052602260045260246000fd5b600060028204905060018216806121e157607f821691505b6020821081036121f4576121f361219a565b5b50919050565b7f4e487b7100000000000000000000000000000000000000000000000000000000600052601160045260246000fd5b600061223482611c77565b91507fffffffffffffffffffffffffffffffffffffffffffffffffffffffffffffffff8203612266576122656121fa565b5b600182019050919050565b60006060820190506122866000830186611d0c565b6122936020830185611f20565b6122a06040830184611d0c565b949350505050565b60008190508160005260206000209050919050565b60006020601f8301049050919050565b600082821b905092915050565b60006008830261230a7fffffffffffffffffffffffffffffffffffffffffffffffffffffffffffffffff826122cd565b61231486836122cd565b95508019841693508086168417925050509392505050565b6000819050919050565b600061235161234c61234784611c77565b61232c565b611c77565b9050919050565b6000819050919050565b61236b83612336565b61237f61237782612358565b8484546122da565b825550505050565b600090565b612394612387565b61239f818484612362565b505050565b5b818110156123c3576123b860008261238c565b6001810190506123a5565b5050565b601f821115612408576123d9816122a8565b6123e2846122bd565b810160208510156123f1578190505b6124056123fd856122bd565b8301826123a4565b50505b505050565b600082821c905092915050565b600061242b6000198460080261240d565b1980831691505092915050565b6000612444838361241a565b9150826002028217905092915050565b61245d82611bc5565b67ffffffffffffffff81111561247657612475611dac565b5b61248082546121c9565b61248b8282856123c7565b600060209050601f8311600181146124be57600084156124ac578287015190505b6124b68582612438565b86555061251e565b601f1984166124cc866122a8565b60005b828110156124f4578489015182556001820191506020850194506020810190506124cf565b86831015612511578489015161250d601f89168261241a565b8355505b6001600288020188555050505b505050505050565b600081519050919050565b600082825260208201905092915050565b600061254d82612526565b6125578185612531565b9350612567818560208601611be1565b61257081611c0b565b840191505092915050565b60006080820190506125906000830187611d0c565b61259d6020830186611d0c565b6125aa6040830185611f20565b81810360608301526125bc8184612542565b905095945050505050565b6000815190506125d681611b36565b92915050565b6000602082840312156125f2576125f1611b00565b5b6000612600848285016125c7565b91505092915050565b600081905092915050565b600061261f82611bc5565b6126298185612609565b9350612639818560208601611be1565b80840191505092915050565b60006126518285612614565b915061265d8284612614565b91508190509392505050565b600060408201905061267e6000830185611d0c565b61268b6020830184611f20565b9392505050565b7f4e487b7100000000000000000000000000000000000000000000000000000000600052601260045260246000fdfea26469706673582212201c34ee8553f95948a1c57ab4937ff3062aac8c529aa5e5a7b8abb89057298a9164736f6c634300081c0033",
  "linkReferences": {},
  "deployedLinkReferences": {}
}