{
  "_format": "hh-sol-artifact-1",
  "contractName": "MusicNFT",
  "sourceName": "contracts/MusicNFT.sol",
  "abi": [
    {
      "inputs": [],
      "stateMutability": "nonpayable",
      "type": "constructor"
    },
    {
      "inputs": [
        {
          "internalType": "address",
          "name": "sender",
          "type": "address"
        },
        {
          "internalType": "uint256",
          "name": "tokenId",
          "type": "uint256"
        },
        {
          "internalType": "address",
          "name": "owner",
          "type": "address"
        }
      ],
      "name": "ERC721IncorrectOwner",
      "type": "error"
    },
    {
      "inputs": [
        {
          "internalType": "address",
          "name": "operator",
          "type": "address"
        },
        {
          "internalType": "uint256",
          "name": "tokenId",
          "type": "uint256"
        }
      ],
      "name": "ERC721InsufficientApproval",
      "type": "error"
    },
    {
      "inputs": [
        {
          "internalType": "address",
          "name": "approver",
          "type": "address"
        }
      ],
      "name": "ERC721InvalidApprover",
      "type": "error"
    },
    {
      "inputs": [
        {
          "internalType": "address",
          "name": "operator",
          "type": "address"
        }
      ],
      "name": "ERC721InvalidOperator",
      "type": "error"
    },
    {
      "inputs": [
        {
          "internalType": "address",
          "name": "owner",
          "type": "address"
        }
      ],
      "name": "ERC721InvalidOwner",
      "type": "error"
    },
    {
      "inputs": [
        {
          "internalType": "address",
          "name": "receiver",
          "type": "address"
        }
      ],
      "name": "ERC721InvalidReceiver",
      "type": "error"
    },
    {
      "inputs": [
        {
          "internalType": "address",
          "name": "sender",
          "type": "address"
        }
      ],
      "name": "ERC721InvalidSender",
      "type": "error"
    },
    {
      "inputs": [
        {
          "internalType": "uint256",
          "name": "tokenId",
          "type": "uint256"
        }
      ],
      "name": "ERC721NonexistentToken",
      "type": "error"
    },
    {
      "inputs": [
        {
          "internalType": "address",
          "name": "owner",
          "type": "address"
        }
      ],
      "name": "OwnableInvalidOwner",
      "type": "error"
    },
    {
      "inputs": [
        {
          "internalType": "address",
          "name": "account",
          "type": "address"
        }
      ],
      "name": "OwnableUnauthorizedAccount",
      "type": "error"
    },
    {
      "anonymous": false,
      "inputs": [
        {
          "indexed": true,
          "internalType": "address",
          "name": "owner",
          "type": "address"
        },
        {
          "indexed": true,
          "internalType": "address",
          "name": "approved",
          "type": "address"
        },
        {
          "indexed": true,
          "internalType": "uint256",
          "name": "tokenId",
          "type": "uint256"
        }
      ],
      "name": "Approval",
      "type": "event"
    },
    {
      "anonymous": false,
      "inputs": [
        {
          "indexed": true,
          "internalType": "address",
          "name": "owner",
          "type": "address"
        },
        {
          "indexed": true,
          "internalType": "address",
          "name": "operator",
          "type": "address"
        },
        {
          "indexed": false,
          "internalType": "bool",
          "name": "approved",
          "type": "bool"
        }
      ],
      "name": "ApprovalForAll",
      "type": "event"
    },
    {
      "anonymous": false,
      "inputs": [
        {
          "indexed": false,
          "internalType": "uint256",
          "name": "_fromTokenId",
          "type": "uint256"
        },
        {
          "indexed": false,
          "internalType": "uint256",
          "name": "_toTokenId",
          "type": "uint256"
        }
      ],
      "name": "BatchMetadataUpdate",
      "type": "event"
    },
    {
      "anonymous": false,
      "inputs": [
        {
          "indexed": false,
          "internalType": "uint256",
          "name": "_tokenId",
          "type": "uint256"
        }
      ],
      "name": "MetadataUpdate",
      "type": "event"
    },
    {
      "anonymous": false,
      "inputs": [
        {
          "indexed": true,
          "internalType": "address",
          "name": "previousOwner",
          "type": "address"
        },
        {
          "indexed": true,
          "internalType": "address",
          "name": "newOwner",
          "type": "address"
        }
      ],
      "name": "OwnershipTransferred",
      "type": "event"
    },
    {
      "anonymous": false,
      "inputs": [
        {
          "indexed": true,
          "internalType": "address",
          "name": "from",
          "type": "address"
        },
        {
          "indexed": true,
          "internalType": "address",
          "name": "to",
          "type": "address"
        },
        {
          "indexed": true,
          "internalType": "uint256",
          "name": "tokenId",
          "type": "uint256"
        }
      ],
      "name": "Transfer",
      "type": "event"
    },
    {
      "inputs": [
        {
          "internalType": "address",
          "name": "to",
          "type": "address"
        },
        {
          "internalType": "uint256",
          "name": "tokenId",
          "type": "uint256"
        }
      ],
      "name": "approve",
      "outputs": [],
      "stateMutability": "nonpayable",
      "type": "function"
    },
    {
      "inputs": [
        {
          "internalType": "address",
          "name": "owner",
          "type": "address"
        }
      ],
      "name": "balanceOf",
      "outputs": [
        {
          "internalType": "uint256",
          "name": "",
          "type": "uint256"
        }
      ],
      "stateMutability": "view",
      "type": "function"
    },
    {
      "inputs": [
        {
          "internalType": "uint256",
          "name": "tokenId",
          "type": "uint256"
        }
      ],
      "name": "getApproved",
      "outputs": [
        {
          "internalType": "address",
          "name": "",
          "type": "address"
        }
      ],
      "stateMutability": "view",
      "type": "function"
    },
    {
      "inputs": [
        {
          "internalType": "address",
          "name": "owner",
          "type": "address"
        },
        {
          "internalType": "address",
          "name": "operator",
          "type": "address"
        }
      ],
      "name": "isApprovedForAll",
      "outputs": [
        {
          "internalType": "bool",
          "name": "",
          "type": "bool"
        }
      ],
      "stateMutability": "view",
      "type": "function"
    },
    {
      "inputs": [
        {
          "internalType": "string",
          "name": "tokenURI",
          "type": "string"
        }
      ],
      "name": "mintMusicNFT",
      "outputs": [
        {
          "internalType": "uint256",
          "name": "",
          "type": "uint256"
        }
      ],
      "stateMutability": "nonpayable",
      "type": "function"
    },
    {
      "inputs": [],
      "name": "name",
      "outputs": [
        {
          "internalType": "string",
          "name": "",
          "type": "string"
        }
      ],
      "stateMutability": "view",
      "type": "function"
    },
    {
      "inputs": [],
      "name": "owner",
      "outputs": [
        {
          "internalType": "address",
          "name": "",
          "type": "address"
        }
      ],
      "stateMutability": "view",
      "type": "function"
    },
    {
      "inputs": [
        {
          "internalType": "uint256",
          "name": "tokenId",
          "type": "uint256"
        }
      ],
      "name": "ownerOf",
      "outputs": [
        {
          "internalType": "address",
          "name": "",
          "type": "address"
        }
      ],
      "stateMutability": "view",
      "type": "function"
    },
    {
      "inputs": [],
      "name": "renounceOwnership",
      "outputs": [],
      "stateMutability": "nonpayable",
      "type": "function"
    },
    {
      "inputs": [
        {
          "internalType": "address",
          "name": "from",
          "type": "address"
        },
        {
          "internalType": "address",
          "name": "to",
          "type": "address"
        },
        {
          "internalType": "uint256",
          "name": "tokenId",
          "type": "uint256"
        }
      ],
      "name": "safeTransferFrom",
      "outputs": [],
      "stateMutability": "nonpayable",
      "type": "function"
    },
    {
      "inputs": [
        {
          "internalType": "address",
          "name": "from",
          "type": "address"
        },
        {
          "internalType": "address",
          "name": "to",
          "type": "address"
        },
        {
          "internalType": "uint256",
          "name": "tokenId",
          "type": "uint256"
        },
        {
          "internalType": "bytes",
          "name": "data",
          "type": "bytes"
        }
      ],
      "name": "safeTransferFrom",
      "outputs": [],
      "stateMutability": "nonpayable",
      "type": "function"
    },
    {
      "inputs": [
        {
          "internalType": "address",
          "name": "operator",
          "type": "address"
        },
        {
          "internalType": "bool",
          "name": "approved",
          "type": "bool"
        }
      ],
      "name": "setApprovalForAll",
      "outputs": [],
      "stateMutability": "nonpayable",
      "type": "function"
    },
    {
      "inputs": [
        {
          "internalType": "bytes4",
          "name": "interfaceId",
          "type": "bytes4"
        }
      ],
      "name": "supportsInterface",
      "outputs": [
        {
          "internalType": "bool",
          "name": "",
          "type": "bool"
        }
      ],
      "stateMutability": "view",
      "type": "function"
    },
    {
      "inputs": [],
      "name": "symbol",
      "outputs": [
        {
          "internalType": "string",
          "name": "",
          "type": "string"
        }
      ],
      "stateMutability": "view",
      "type": "function"
    },
    {
      "inputs": [],
      "name": "tokenCounter",
      "outputs": [
        {
          "internalType": "uint256",
          "name": "",
          "type": "uint256"
        }
      ],
      "stateMutability": "view",
      "type": "function"
    },
    {
      "inputs": [
        {
          "internalType": "uint256",
          "name": "tokenId",
          "type": "uint256"
        }
      ],
      "name": "tokenURI",
      "outputs": [
        {
          "internalType": "string",
          "name": "",
          "type": "string"
        }
      ],
      "stateMutability": "view",
      "type": "function"
    },
    {
      "inputs": [
        {
          "internalType": "address",
          "name": "from",
          "type": "address"
        },
        {
          "internalType": "address",
          "name": "to",
          "type": "address"
        },
        {
          "internalType": "uint256",
          "name": "tokenId",
          "type": "uint256"
        }
      ],
      "name": "transferFrom",
      "outputs": [],
      "stateMutability": "nonpayable",
      "type": "function"
    },
    {
      "inputs": [
        {
          "internalType": "address",
          "name": "newOwner",
          "type": "address"
        }
      ],
      "name": "transferOwnership",
      "outputs": [],
      "stateMutability": "nonpayable",
      "type": "function"
    }
  ],
  "bytecode": "0x608060405234801561001057600080fd5b50336040518060400160405280600e81526020017f417564696f6d696e744d757369630000000000000000000000000000000000008152506040518060400160405280600581526020017f415544494f000000000000000000000000000000000000000000000000000000815250816000908161008d9190610445565b50806001908161009d9190610445565b505050600073ffffffffffffffffffffffffffffffffffffffff168173ffffffffffffffffffffffffffffffffffffffff16036101125760006040517f1e4fbdf70000000000000000000000000000000000000000000000000000000081526004016101099190610558565b60405180910390fd5b6101218161012f60201b60201c565b506000600881905550610573565b6000600760009054906101000a900473ffffffffffffffffffffffffffffffffffffffff16905081600760006101000a81548173ffffffffffffffffffffffffffffffffffffffff021916908373ffffffffffffffffffffffffffffffffffffffff1602179055508173ffffffffffffffffffffffffffffffffffffffff168173ffffffffffffffffffffffffffffffffffffffff167f8be0079c531659141344cd1fd0a4f28419497f9722a3daafe3b4186f6b6457e060405160405180910390a35050565b600081519050919050565b7f4e487b7100000000000000000000000000000000000000000000000000000000600052604160045260246000fd5b7f4e487b7100000000000000000000000000000000000000000000000000000000600052602260045260246000fd5b6000600282049050600182168061027657607f821691505b6020821081036102895761028861022f565b5b50919050565b60008190508160005260206000209050919050565b60006020601f8301049050919050565b600082821b905092915050565b6000600883026102f17fffffffffffffffffffffffffffffffffffffffffffffffffffffffffffffffff826102b4565b6102fb86836102b4565b95508019841693508086168417925050509392505050565b6000819050919050565b6000819050919050565b600061034261033d61033884610313565b61031d565b610313565b9050919050565b6000819050919050565b61035c83610327565b61037061036882610349565b8484546102c1565b825550505050565b600090565b610385610378565b610390818484610353565b505050565b5b818110156103b4576103a960008261037d565b600181019050610396565b5050565b601f8211156103f9576103ca8161028f565b6103d3846102a4565b810160208510156103e2578190505b6103f66103ee856102a4565b830182610395565b50505b505050565b600082821c905092915050565b600061041c600019846008026103fe565b1980831691505092915050565b6000610435838361040b565b9150826002028217905092915050565b61044e826101f5565b67ffffffffffffffff81111561046757610466610200565b5b610471825461025e565b61047c8282856103b8565b600060209050601f8311600181146104af576000841561049d578287015190505b6104a78582610429565b86555061050f565b601f1984166104bd8661028f565b60005b828110156104e5578489015182556001820191506020850194506020810190506104c0565b8683101561050257848901516104fe601f89168261040b565b8355505b6001600288020188555050505b505050505050565b600073ffffffffffffffffffffffffffffffffffffffff82169050919050565b600061054282610517565b9050919050565b61055281610537565b82525050565b600060208201905061056d6000830184610549565b92915050565b612695806105826000396000f3fe608060405234801561001057600080fd5b50600436106101165760003560e01c8063715018a6116100a2578063b88d4fde11610071578063b88d4fde146102df578063c87b56dd146102fb578063d082e3811461032b578063e985e9c514610349578063f2fde38b1461037957610116565b8063715018a61461027d5780638da5cb5b1461028757806395d89b41146102a5578063a22cb465146102c357610116565b8063221a83d7116100e9578063221a83d7146101b557806323b872dd146101e557806342842e0e146102015780636352211e1461021d57806370a082311461024d57610116565b806301ffc9a71461011b57806306fdde031461014b578063081812fc14610169578063095ea7b314610199575b600080fd5b61013560048036038101906101309190611b00565b610395565b6040516101429190611b48565b60405180910390f35b6101536103f6565b6040516101609190611bf3565b60405180910390f35b610183600480360381019061017e9190611c4b565b610488565b6040516101909190611cb9565b60405180910390f35b6101b360048036038101906101ae9190611d00565b6104a4565b005b6101cf60048036038101906101ca9190611e75565b6104ba565b6040516101dc9190611ecd565b60405180910390f35b6101ff60048036038101906101fa9190611ee8565b6104f7565b005b61021b60048036038101906102169190611ee8565b6105f9565b005b61023760048036038101906102329190611c4b565b610619565b6040516102449190611cb9565b60405180910390f35b61026760048036038101906102629190611f3b565b61062b565b6040516102749190611ecd565b60405180910390f35b6102856106e5565b005b61028f6106f9565b60405161029c9190611cb9565b60405180910390f35b6102ad610723565b6040516102ba9190611bf3565b60405180910390f35b6102dd60048036038101906102d89190611f94565b6107b5565b005b6102f960048036038101906102f49190612075565b6107cb565b005b61031560048036038101906103109190611c4b565b6107f0565b6040516103229190611bf3565b60405180910390f35b610333610903565b6040516103409190611ecd565b60405180910390f35b610363600480360381019061035e91906120f8565b610909565b6040516103709190611b48565b60405180910390f35b610393600480360381019061038e9190611f3b565b61099d565b005b6000634906490660e01b7bffffffffffffffffffffffffffffffffffffffffffffffffffffffff1916827bffffffffffffffffffffffffffffffffffffffffffffffffffffffff191614806103ef57506103ee82610a23565b5b9050919050565b60606000805461040590612167565b80601f016020809104026020016040519081016040528092919081815260200182805461043190612167565b801561047e5780601f106104535761010080835404028352916020019161047e565b820191906000526020600020905b81548152906001019060200180831161046157829003601f168201915b5050505050905090565b600061049382610b05565b5061049d82610b8d565b9050919050565b6104b682826104b1610bca565b610bd2565b5050565b60008060085490506104cc3382610be4565b6104d68184610c02565b600860008154809291906104e9906121c7565b919050555080915050919050565b600073ffffffffffffffffffffffffffffffffffffffff168273ffffffffffffffffffffffffffffffffffffffff16036105695760006040517f64a0ae920000000000000000000000000000000000000000000000000000000081526004016105609190611cb9565b60405180910390fd5b600061057d8383610578610bca565b610c5e565b90508373ffffffffffffffffffffffffffffffffffffffff168173ffffffffffffffffffffffffffffffffffffffff16146105f3578382826040517f64283d7b0000000000000000000000000000000000000000000000000000000081526004016105ea9392919061220f565b60405180910390fd5b50505050565b610614838383604051806020016040528060008152506107cb565b505050565b600061062482610b05565b9050919050565b60008073ffffffffffffffffffffffffffffffffffffffff168273ffffffffffffffffffffffffffffffffffffffff160361069e5760006040517f89c62b640000000000000000000000000000000000000000000000000000000081526004016106959190611cb9565b60405180910390fd5b600360008373ffffffffffffffffffffffffffffffffffffffff1673ffffffffffffffffffffffffffffffffffffffff168152602001908152602001600020549050919050565b6106ed610e78565b6106f76000610eff565b565b6000600760009054906101000a900473ffffffffffffffffffffffffffffffffffffffff16905090565b60606001805461073290612167565b80601f016020809104026020016040519081016040528092919081815260200182805461075e90612167565b80156107ab5780601f10610780576101008083540402835291602001916107ab565b820191906000526020600020905b81548152906001019060200180831161078e57829003601f168201915b5050505050905090565b6107c76107c0610bca565b8383610fc5565b5050565b6107d68484846104f7565b6107ea6107e1610bca565b85858585611134565b50505050565b60606107fb82610b05565b50600060066000848152602001908152602001600020805461081c90612167565b80601f016020809104026020016040519081016040528092919081815260200182805461084890612167565b80156108955780601f1061086a57610100808354040283529160200191610895565b820191906000526020600020905b81548152906001019060200180831161087857829003601f168201915b5050505050905060006108a66112e5565b905060008151036108bb5781925050506108fe565b6000825111156108f05780826040516020016108d8929190612282565b604051602081830303815290604052925050506108fe565b6108f9846112fc565b925050505b919050565b60085481565b6000600560008473ffffffffffffffffffffffffffffffffffffffff1673ffffffffffffffffffffffffffffffffffffffff16815260200190815260200160002060008373ffffffffffffffffffffffffffffffffffffffff1673ffffffffffffffffffffffffffffffffffffffff16815260200190815260200160002060009054906101000a900460ff16905092915050565b6109a5610e78565b600073ffffffffffffffffffffffffffffffffffffffff168173ffffffffffffffffffffffffffffffffffffffff1603610a175760006040517f1e4fbdf7000000000000000000000000000000000000000000000000000000008152600401610a0e9190611cb9565b60405180910390fd5b610a2081610eff565b50565b60007f80ac58cd000000000000000000000000000000000000000000000000000000007bffffffffffffffffffffffffffffffffffffffffffffffffffffffff1916827bffffffffffffffffffffffffffffffffffffffffffffffffffffffff19161480610aee57507f5b5e139f000000000000000000000000000000000000000000000000000000007bffffffffffffffffffffffffffffffffffffffffffffffffffffffff1916827bffffffffffffffffffffffffffffffffffffffffffffffffffffffff1916145b80610afe5750610afd82611365565b5b9050919050565b600080610b11836113cf565b9050600073ffffffffffffffffffffffffffffffffffffffff168173ffffffffffffffffffffffffffffffffffffffff1603610b8457826040517f7e273289000000000000000000000000000000000000000000000000000000008152600401610b7b9190611ecd565b60405180910390fd5b80915050919050565b60006004600083815260200190815260200160002060009054906101000a900473ffffffffffffffffffffffffffffffffffffffff169050919050565b600033905090565b610bdf838383600161140c565b505050565b610bfe8282604051806020016040528060008152506115d1565b5050565b80600660008481526020019081526020016000209081610c229190612452565b507ff8e1a15aba9398e019f0b49df1a4fde98ee17ae345cb5f6b5e2c27f5033e8ce782604051610c529190611ecd565b60405180910390a15050565b600080610c6a846113cf565b9050600073ffffffffffffffffffffffffffffffffffffffff168373ffffffffffffffffffffffffffffffffffffffff1614610cac57610cab8184866115f5565b5b600073ffffffffffffffffffffffffffffffffffffffff168173ffffffffffffffffffffffffffffffffffffffff1614610d3d57610cee60008560008061140c565b6001600360008373ffffffffffffffffffffffffffffffffffffffff1673ffffffffffffffffffffffffffffffffffffffff168152602001908152602001600020600082825403925050819055505b600073ffffffffffffffffffffffffffffffffffffffff168573ffffffffffffffffffffffffffffffffffffffff1614610dc0576001600360008773ffffffffffffffffffffffffffffffffffffffff1673ffffffffffffffffffffffffffffffffffffffff168152602001908152602001600020600082825401925050819055505b846002600086815260200190815260200160002060006101000a81548173ffffffffffffffffffffffffffffffffffffffff021916908373ffffffffffffffffffffffffffffffffffffffff160217905550838573ffffffffffffffffffffffffffffffffffffffff168273ffffffffffffffffffffffffffffffffffffffff167fddf252ad1be2c89b69c2b068fc378daa952ba7f163c4a11628f55a4df523b3ef60405160405180910390a4809150509392505050565b610e80610bca565b73ffffffffffffffffffffffffffffffffffffffff16610e9e6106f9565b73ffffffffffffffffffffffffffffffffffffffff1614610efd57610ec1610bca565b6040517f118cdaa7000000000000000000000000000000000000000000000000000000008152600401610ef49190611cb9565b60405180910390fd5b565b6000600760009054906101000a900473ffffffffffffffffffffffffffffffffffffffff16905081600760006101000a81548173ffffffffffffffffffffffffffffffffffffffff021916908373ffffffffffffffffffffffffffffffffffffffff1602179055508173ffffffffffffffffffffffffffffffffffffffff168173ffffffffffffffffffffffffffffffffffffffff167f8be0079c531659141344cd1fd0a4f28419497f9722a3daafe3b4186f6b6457e060405160405180910390a35050565b600073ffffffffffffffffffffffffffffffffffffffff168273ffffffffffffffffffffffffffffffffffffffff160361103657816040517f5b08ba1800000000000000000000000000000000000000000000000000000000815260040161102d9190611cb9565b60405180910390fd5b80600560008573ffffffffffffffffffffffffffffffffffffffff1673ffffffffffffffffffffffffffffffffffffffff16815260200190815260200160002060008473ffffffffffffffffffffffffffffffffffffffff1673ffffffffffffffffffffffffffffffffffffffff16815260200190815260200160002060006101000a81548160ff0219169083151502179055508173ffffffffffffffffffffffffffffffffffffffff168373ffffffffffffffffffffffffffffffffffffffff167f17307eab39ab6107e8899845ad3d59bd9653f200f220920489ca2b5937696c31836040516111279190611b48565b60405180910390a3505050565b60008373ffffffffffffffffffffffffffffffffffffffff163b11156112de578273ffffffffffffffffffffffffffffffffffffffff1663150b7a02868685856040518563ffffffff1660e01b81526004016111939493929190612579565b6020604051808303816000875af19250505080156111cf57506040513d601f19601f820116820180604052508101906111cc91906125da565b60015b611253573d80600081146111ff576040519150601f19603f3d011682016040523d82523d6000602084013e611204565b606091505b50600081510361124b57836040517f64a0ae920000000000000000000000000000000000000000000000000000000081526004016112429190611cb9565b60405180910390fd5b805181602001fd5b63150b7a0260e01b7bffffffffffffffffffffffffffffffffffffffffffffffffffffffff1916817bffffffffffffffffffffffffffffffffffffffffffffffffffffffff1916146112dc57836040517f64a0ae920000000000000000000000000000000000000000000000000000000081526004016112d39190611cb9565b60405180910390fd5b505b5050505050565b606060405180602001604052806000815250905090565b606061130782610b05565b5060006113126112e5565b90506000815111611332576040518060200160405280600081525061135d565b8061133c846116b9565b60405160200161134d929190612282565b6040516020818303038152906040525b915050919050565b60007f01ffc9a7000000000000000000000000000000000000000000000000000000007bffffffffffffffffffffffffffffffffffffffffffffffffffffffff1916827bffffffffffffffffffffffffffffffffffffffffffffffffffffffff1916149050919050565b60006002600083815260200190815260200160002060009054906101000a900473ffffffffffffffffffffffffffffffffffffffff169050919050565b80806114455750600073ffffffffffffffffffffffffffffffffffffffff168273ffffffffffffffffffffffffffffffffffffffff1614155b1561157957600061145584610b05565b9050600073ffffffffffffffffffffffffffffffffffffffff168373ffffffffffffffffffffffffffffffffffffffff16141580156114c057508273ffffffffffffffffffffffffffffffffffffffff168173ffffffffffffffffffffffffffffffffffffffff1614155b80156114d357506114d18184610909565b155b1561151557826040517fa9fbf51f00000000000000000000000000000000000000000000000000000000815260040161150c9190611cb9565b60405180910390fd5b811561157757838573ffffffffffffffffffffffffffffffffffffffff168273ffffffffffffffffffffffffffffffffffffffff167f8c5be1e5ebec7d5bd14f71427d1e84f3dd0314c0f7b2291e5b200ac8c7c3b92560405160405180910390a45b505b836004600085815260200190815260200160002060006101000a81548173ffffffffffffffffffffffffffffffffffffffff021916908373ffffffffffffffffffffffffffffffffffffffff16021790555050505050565b6115db8383611787565b6115f06115e6610bca565b6000858585611134565b505050565b611600838383611880565b6116b457600073ffffffffffffffffffffffffffffffffffffffff168373ffffffffffffffffffffffffffffffffffffffff160361167557806040517f7e27328900000000000000000000000000000000000000000000000000000000815260040161166c9190611ecd565b60405180910390fd5b81816040517f177e802f0000000000000000000000000000000000000000000000000000000081526004016116ab929190612607565b60405180910390fd5b505050565b6060600060016116c884611941565b01905060008167ffffffffffffffff8111156116e7576116e6611d4a565b5b6040519080825280601f01601f1916602001820160405280156117195781602001600182028036833780820191505090505b509050600082602001820190505b60011561177c578080600190039150507f3031323334353637383961626364656600000000000000000000000000000000600a86061a8153600a85816117705761176f612630565b5b04945060008503611727575b819350505050919050565b600073ffffffffffffffffffffffffffffffffffffffff168273ffffffffffffffffffffffffffffffffffffffff16036117f95760006040517f64a0ae920000000000000000000000000000000000000000000000000000000081526004016117f09190611cb9565b60405180910390fd5b600061180783836000610c5e565b9050600073ffffffffffffffffffffffffffffffffffffffff168173ffffffffffffffffffffffffffffffffffffffff161461187b5760006040517f73c6ac6e0000000000000000000000000000000000000000000000000000000081526004016118729190611cb9565b60405180910390fd5b505050565b60008073ffffffffffffffffffffffffffffffffffffffff168373ffffffffffffffffffffffffffffffffffffffff161415801561193857508273ffffffffffffffffffffffffffffffffffffffff168473ffffffffffffffffffffffffffffffffffffffff1614806118f957506118f88484610909565b5b8061193757508273ffffffffffffffffffffffffffffffffffffffff1661191f83610b8d565b73ffffffffffffffffffffffffffffffffffffffff16145b5b90509392505050565b600080600090507a184f03e93ff9f4daa797ed6e38ed64bf6a1f010000000000000000831061199f577a184f03e93ff9f4daa797ed6e38ed64bf6a1f010000000000000000838161199557611994612630565b5b0492506040810190505b6d04ee2d6d415b85acef810000000083106119dc576d04ee2d6d415b85acef810000000083816119d2576119d1612630565b5b0492506020810190505b662386f26fc100008310611a0b57662386f26fc100008381611a0157611a00612630565b5b0492506010810190505b6305f5e1008310611a34576305f5e1008381611a2a57611a29612630565b5b0492506008810190505b6127108310611a59576127108381611a4f57611a4e612630565b5b0492506004810190505b60648310611a7c5760648381611a7257611a71612630565b5b0492506002810190505b600a8310611a8b576001810190505b80915050919050565b6000604051905090565b600080fd5b600080fd5b60007fffffffff0000000000000000000000000000000000000000000000000000000082169050919050565b611add81611aa8565b8114611ae857600080fd5b50565b600081359050611afa81611ad4565b92915050565b600060208284031215611b1657611b15611a9e565b5b6000611b2484828501611aeb565b91505092915050565b60008115159050919050565b611b4281611b2d565b82525050565b6000602082019050611b5d6000830184611b39565b92915050565b600081519050919050565b600082825260208201905092915050565b60005b83811015611b9d578082015181840152602081019050611b82565b60008484015250505050565b6000601f19601f8301169050919050565b6000611bc582611b63565b611bcf8185611b6e565b9350611bdf818560208601611b7f565b611be881611ba9565b840191505092915050565b60006020820190508181036000830152611c0d8184611bba565b905092915050565b6000819050919050565b611c2881611c15565b8114611c3357600080fd5b50565b600081359050611c4581611c1f565b92915050565b600060208284031215611c6157611c60611a9e565b5b6000611c6f84828501611c36565b91505092915050565b600073ffffffffffffffffffffffffffffffffffffffff82169050919050565b6000611ca382611c78565b9050919050565b611cb381611c98565b82525050565b6000602082019050611cce6000830184611caa565b92915050565b611cdd81611c98565b8114611ce857600080fd5b50565b600081359050611cfa81611cd4565b92915050565b60008060408385031215611d1757611d16611a9e565b5b6000611d2585828601611ceb565b9250506020611d3685828601611c36565b9150509250929050565b600080fd5b600080fd5b7f4e487b7100000000000000000000000000000000000000000000000000000000600052604160045260246000fd5b611d8282611ba9565b810181811067ffffffffffffffff82111715611da157611da0611d4a565b5b80604052505050565b6000611db4611a94565b9050611dc08282611d79565b919050565b600067ffffffffffffffff821115611de057611ddf611d4a565b5b611de982611ba9565b9050602081019050919050565b82818337600083830152505050565b6000611e18611e1384611dc5565b611daa565b905082815260208101848484011115611e3457611e33611d45565b5b611e3f848285611df6565b509392505050565b600082601f830112611e5c57611e5b611d40565b5b8135611e6c848260208601611e05565b91505092915050565b600060208284031215611e8b57611e8a611a9e565b5b600082013567ffffffffffffffff811115611ea957611ea8611aa3565b5b611eb584828501611e47565b91505092915050565b611ec781611c15565b82525050565b6000602082019050611ee26000830184611ebe565b92915050565b600080600060608486031215611f0157611f00611a9e565b5b6000611f0f86828701611ceb565b9350506020611f2086828701611ceb565b9250506040611f3186828701611c36565b9150509250925092565b600060208284031215611f5157611f50611a9e565b5b6000611f5f84828501611ceb565b91505092915050565b611f7181611b2d565b8114611f7c57600080fd5b50565b600081359050611f8e81611f68565b92915050565b60008060408385031215611fab57611faa611a9e565b5b6000611fb985828601611ceb565b9250506020611fca85828601611f7f565b9150509250929050565b600067ffffffffffffffff821115611fef57611fee611d4a565b5b611ff882611ba9565b9050602081019050919050565b600061201861201384611fd4565b611daa565b90508281526020810184848401111561203457612033611d45565b5b61203f848285611df6565b509392505050565b600082601f83011261205c5761205b611d40565b5b813561206c848260208601612005565b91505092915050565b6000806000806080858703121561208f5761208e611a9e565b5b600061209d87828801611ceb565b94505060206120ae87828801611ceb565b93505060406120bf87828801611c36565b925050606085013567ffffffffffffffff8111156120e0576120df611aa3565b5b6120ec87828801612047565b91505092959194509250565b6000806040838503121561210f5761210e611a9e565b5b600061211d85828601611ceb565b925050602061212e85828601611ceb565b9150509250929050565b7f4e487b7100000000000000000000000000000000000000000000000000000000600052602260045260246000fd5b6000600282049050600182168061217f57607f821691505b60208210810361219257612191612138565b5b50919050565b7f4e487b7100000000000000000000000000000000000000000000000000000000600052601160045260246000fd5b60006121d282611c15565b91507fffffffffffffffffffffffffffffffffffffffffffffffffffffffffffffffff820361220457612203612198565b5b600182019050919050565b60006060820190506122246000830186611caa565b6122316020830185611ebe565b61223e6040830184611caa565b949350505050565b600081905092915050565b600061225c82611b63565b6122668185612246565b9350612276818560208601611b7f565b80840191505092915050565b600061228e8285612251565b915061229a8284612251565b91508190509392505050565b60008190508160005260206000209050919050565b60006020601f8301049050919050565b600082821b905092915050565b6000600883026123087fffffffffffffffffffffffffffffffffffffffffffffffffffffffffffffffff826122cb565b61231286836122cb565b95508019841693508086168417925050509392505050565b6000819050919050565b600061234f61234a61234584611c15565b61232a565b611c15565b9050919050565b6000819050919050565b61236983612334565b61237d61237582612356565b8484546122d8565b825550505050565b600090565b612392612385565b61239d818484612360565b505050565b5b818110156123c1576123b660008261238a565b6001810190506123a3565b5050565b601f821115612406576123d7816122a6565b6123e0846122bb565b810160208510156123ef578190505b6124036123fb856122bb565b8301826123a2565b50505b505050565b600082821c905092915050565b60006124296000198460080261240b565b1980831691505092915050565b60006124428383612418565b9150826002028217905092915050565b61245b82611b63565b67ffffffffffffffff81111561247457612473611d4a565b5b61247e8254612167565b6124898282856123c5565b600060209050601f8311600181146124bc57600084156124aa578287015190505b6124b48582612436565b86555061251c565b601f1984166124ca866122a6565b60005b828110156124f2578489015182556001820191506020850194506020810190506124cd565b8683101561250f578489015161250b601f891682612418565b8355505b6001600288020188555050505b505050505050565b600081519050919050565b600082825260208201905092915050565b600061254b82612524565b612555818561252f565b9350612565818560208601611b7f565b61256e81611ba9565b840191505092915050565b600060808201905061258e6000830187611caa565b61259b6020830186611caa565b6125a86040830185611ebe565b81810360608301526125ba8184612540565b905095945050505050565b6000815190506125d481611ad4565b92915050565b6000602082840312156125f0576125ef611a9e565b5b60006125fe848285016125c5565b91505092915050565b600060408201905061261c6000830185611caa565b6126296020830184611ebe565b9392505050565b7f4e487b7100000000000000000000000000000000000000000000000000000000600052601260045260246000fdfea26469706673582212208a3be8da8848c5c0270900ce8e3a1e80d51e978ae87fe095e942ff6c6e2b8ae964736f6c634300081c0033",
  "linkReferences": {},
  "deployedLinkReferences": {}
}